:020000001F2EB1
:10000800FF00030E83018316A8000A08AB008A01CB
:1000180070088312A5007108A4007208A300730871
:10002800A2007408A1000D1C40286F080319292894
:100038005A08F000F10170089C0059089B00EF0174
:1000480009309D008F018E013E285908403CF3007D
:100058005A08031C013E9C3CF4007408F000F101AE
:1000680070089C0073089B0008309D000130EF0069
:100078008F018E01FE308D052508F0002408F1005F
:100088002308F2002208F3002108F40083162B0845
:0C0098008A00280E8300FF0E7F0E090076
:1000A40083120313F1013230710203186D28F20137
:1000B400F30180307306F0008030073A7002031DAC
:1000C4006528D030720203186B28F20A0319F30A68
:0800D4005B28F10A5528080021
:1000DC0083160313B301B401B501B601B301B40126
:1000EC0032083402031D7C2831083302031890288F
:1000FC00B501B60100303602031D86289B3035024F
:10010C0003188C28B50A0319B60A8028B30A0319F8
:06011C00B40A7628080079
:10012200710DF80DF90D7408F8027508031C750FAE
:10013200F902F00DF10D0F30FC00710DF80DF90D03
:100142007408701CAA28F8027508031C750FF902BE
:10015200AF28F80775080318750FF907F00DF10DB0
:10016200FC0B9E287018BB287408F8077508031842
:08017200750FF90700000800F9
:10017A0083160313B301B401B301B4013208340284
:10018A00031DC928310833020318D12800000000D2
:0A019A00B30A0319B40AC3280800D1
:1001A400831203132230FC00F801F901FA01FB0168
:1001B400FC03031908290310FB0CFA0CF90CF80CC6
:1001C400F30CF20CF10CF00C031CDA28FC030319F9
:1001D400FA287408F80775080318750FF9077608E4
:1001E4000318760FFA0777080318770FFB07DE2842
:1001F4007408F80775080318750FF90776080318CB
:0E020400760FFA0777080318770FFB0708003C
:100212008312031306175220BF308605D801080047
:10022200831203130616831630088312880086167B
:1002320005308316B1000030B2006E20DF30831229
:10024200860564308316B1000030B200BD2008007C
:10025200EF30831203138605831630088312880059
:10026200861605308316B1000030B2006E20DF30F2
:100272008312860564308316B1000030B200BD20BF
:02028200080072
:10028400831203137408003A031D51297508003AB8
:10029400031D5129FF30F0007F30F100AA29831299
:1002A4000313FD01F901F801710870040319003406
:1002B40071087506FA00FA1BFD09FB01F51F672991
:1002C400F409F509F40A0319F50AF11F6E29F00976
:1002D400F109F00A0319F10A71087504FA00FA1B0E
:1002E400832991207B189629FD1F0034F009F10918
:1002F400F00A0319F10AF809F909F80A0319F90AC5
:100304000034F51F9229F11B8E297108F900700839
:10031400F800F101F0017629F101F001F00A00344E
:10032400F109F009FB0A7329F80A0319F90A740898
:100334007802031D762975087902031D7629F901CF
:10034400F801F00A0319F10AF11F76290000FF34BD
:0203540008009F
:1003560083120313D80A861752207F3086050800B9
:10036600831203131F151F1DB929B6291E08F10094
:0E037600F00183161E08F0040030F1040800A8
:100384004130831203139F00CE3083169F00013047
:0403940085000800D8
:10039800831603133008003C0318D329E02983127D
:1003A800861758308316B1000230B2006E207F30B5
:0A03B800831286050A30C207080010
:1003C20083120313FB01FA01F901F801A001730D75
:1003D200F80D7408F8027508031C750FF902760807
:1003E200031C760FFA027708031C770FFB02000149
:1003F200031C0130A002F30D0730FC00730DF80D51
:10040200F90DFA0DFB0DA00D7408731C1A2AF802DF
:100412007508031C750FF9027608031C760FFA02A1
:100422007708031C770FFB020001031C0130A002B6
:100432002B2AF80775080318750FF90776080318B1
:10044200760FFA0777080318770FFB0700010318E6
:100452000130A007F30DFC0BFF29720DF80DF90D09
:10046200FA0DFB0DA00D7408731C492AF8027508D9
:10047200031C750FF9027608031C760FFA0277083F
:10048200031C770FFB020001031C0130A0025A2A51
:10049200F80775080318750FF90776080318760F21
:1004A200FA0777080318770FFB07000103180130DA
:1004B200A007F20D0730FC00720DF80DF90DFA0DD0
:1004C200FB0DA00D7408721C782AF8027508031C33
:1004D200750FF9027608031C760FFA027708031CDF
:1004E200770FFB020001031C0130A002892AF807E2
:1004F20075080318750FF90776080318760FFA07BF
:1005020077080318770FFB07000103180130A007D3
:10051200F20DFC0B5D2A710DF80DF90DFA0DFB0DB4
:10052200A00D7408721CA72AF8027508031C750F27
:10053200F9027608031C760FFA027708031C770F7C
:10054200FB020001031C0130A002B82AF80775085B
:100552000318750FF90776080318760FFA0777085C
:100562000318770FFB07000103180130A007F10DF4
:100572000730FC00710DF80DF90DFA0DFB0DA00D01
:100582007408711CD62AF8027508031C750FF9024B
:100592007608031C760FFA027708031C770FFB021A
:1005A2000001031C0130A002E72AF80775080318AE
:1005B200750FF90776080318760FFA0777080318FC
:1005C200770FFB07000103180130A007F10DFC0BA8
:1005D200BB2A700DF80DF90DFA0DFB0DA00D740874
:1005E200711C052BF8027508031C750FF9027608B9
:1005F200031C760FFA027708031C770FFB02000137
:10060200031C0130A002162BF80775080318750F9A
:10061200F90776080318760FFA0777080318770F99
:10062200FB07000103180130A007F00D0730FC00A2
:10063200700DF80DF90DFA0DFB0DA00D7408701C6C
:10064200342BF8027508031C750FF9027608031C97
:10065200760FFA027708031C770FFB020001031CD6
:100662000130A002452BF80775080318750FF9072A
:1006720076080318760FFA0777080318770FFB0737
:10068200000103180130A007F00DFC0B192B7018A4
:10069200582B7408F80775080318750FF9077608C0
:1006A2000318760FFA0777080318770FFB0708007D
:1006B20083120313871D642B06145220FE30860515
:1006C2000130F000772B071E6D2B86145220FD306F
:1006D20086050230F000772B871E762B06155220F6
:0E06E200FB3086050330F000772B592B080003
:1006F000143083160313B1000030B2006E20CF30E7
:1007000086058801EF3083128605DF308605383094
:100710008316B00029210C30B00029210130B0002F
:0A07200029210630B000292108004D
:10072A00743083120313D9000E30DA00D0308316E6
:0A073A00B1000730B2006E20080085
:1007440083120313EC0101306E02F000F101031C6B
:10075400F1030430F4000030F50042217008013E3A
:10076400F20000300318013E7107F3008030730675
:10077400F00080307002031DC12B6C087202031C50
:10078400D52B01306E02F000F101031CF10304309B
:10079400F4000030F500422170085F3E84006730A9
:0807A4008000EC0AA52B0800FF
:1007AC00C221B32170088312DB007108DC00C30185
:1007BC0064307002F2000030031C013E7102F30041
:1007CC0073085E02031DEC2B72085D020318F52BF7
:1007DC0043088316B000CC2183120313C30A08000C
:1007EC00013083120313D8002830ED008316A401C6
:1007FC00A501A601A701A001A101A201A3018312D9
:10080C00D401D501D601D7018F018E017D3083161D
:10081C0085050515CE309F00183083129000080016
:10082C00D03083120313D9000730DA00D03083168E
:0A083C00B1000730B2006E20080082
:10084600013083160313AD0001308312EC006C08EF
:100856006E02031C5C2C03306C05F1007108013A32
:10086600031D462C01306E02F000F101031CF1035A
:100876000430F4000030F500422170085F3E840029
:100886000008E9004A2CE90CE913E90CE91359239D
:100896007008EA0003306905F2007208EB0072087E
:1008A60070060319592C8316AD015C2C8312EC0AD1
:1008B6002A2C83162D080319622CAB21632C0921DF
:0208C600080028
:1008C8003830831603138605383083128605C730FF
:1008D800870538308316870428308312D300013007
:0408E800D80008002C
:1008EC00023083120313FB000430FC00BA30FD000D
:1008FC00FD0B7E2CFC0B7E2CFB0B7E2C0000D80AF7
:10090C008F018E0185140A308316B1000030B200BD
:10091C00BD20FD30831285050519952C922C1930BC
:10092C009000051D9A2C972C183090008316A70167
:10093C00831210088316A60083120F088316A500D5
:10094C00A40183120E088316A4040030A504003001
:10095C00A600A7002408A0002508A1002608A200D4
:10096C002708A3002408F0002508F1002608F2004F
:10097C002708F3002230F400F501F601F701D2202C
:10098C00E830F4000330F500F601F701E1217008BE
:10099C00F5007108F6007208F7007308F800F80CFF
:1009AC00F70CF60CF50CF8137508D4007608D50086
:1009BC007708D6007808D7005808313E8400000824
:1009CC00F1007808003C031DF52C7708003C031D52
:1009DC00F52C7608003C031DF52C750871020318E4
:1009EC00002D5808313E840000085402F0007008B5
:1009FC00ED02082D5808313E840054080002F00026
:060A0C007008ED02080075
:100A120083160313AE01AF012E082D0784000008D0
:100A2200003A0319342D00302F06031D1A2D0F3002
:100A32002E06031D1F2DC030B000292100302F06C5
:100A4200031D252D1D302E06031D2A2D8030B000DA
:100A520029212E082D0784000008B0001121AE0ABA
:080A62000319AF0A0D2D080075
:0E0A6A00831603132A088A0029088200080058
:100A7800013083120313EC006C086E02031C802DF6
:100A880003306C05F1007108013A031D5C2D01303B
:100A98006E02F000F101031CF1030430F400003091
:100AA800F500422170085F3E84000008E900602DCF
:100AB800E90CE913E90CE91303306905F100710841
:100AC800EB007108013A031D6B2D0614762D6B0897
:100AD800023A031D712D8614762D6B08033A031D07
:100AE800762D06155220FD308605FE308605FB3032
:0A0AF80086055220EC0A402D08008C
:0A0B0200831203135808EE000800E8
:100B0C0078230130B0002921F623831258083002D3
:100B1C00031CB92D01308316B00029212630AD00FD
:100B2C00092583125808313E84000008303E831694
:100B3C00B00011218830B1001330B2006E20762441
:100B4C0001308316B00029213C30AD0009258312F9
:100B5C005408303E8316B0001121E830B100033048
:100B6C00B2006E208B2D83160130B0002921443049
:100B7C00AD0009252C30B1000130B2006E20080008
:100B8C0064245808003A0319D42D58085302031C46
:0E0B9C00D42D8125A2233C252324C72D08003B
:100BAA007F30831603138605FD30870506148312EA
:100BBA008F018E010130EF0008309D000130900056
:100BCA00C0308B0083160D14073083129C00D0307E
:100BDA009B007F308605C2010A308316AC002C08C0
:100BEA00F000AC03700803190F2E1624B321700805
:100BFA008312DD007108DE0058308316B10002301E
:100C0A00B2006E20D62395235830B1000230B200CC
:0C0C1A006E20F42D0A308312C202080084
:100C260035258A110A128000840AA90A0319AA0A1C
:080C3600F003031D132E08005A
:100C3E0064263830831603138605383083128605F2
:100C4E00C33087053C3083168704C625D5258625F7
:020C5E002F2E37
:100CC800263084002E3083120313F000353083164B
:0A0CD800A9000630AA001326080048
:100C6A005234653471347534693472346534643499
:040C7A0020340034EE
:020C7E0005343B
:100C8000003403340534083406340734083404349B
:060C9000033405340434B6
:0C0C96005234653461346434203400347E
:020CA20000341C
:020CA40000341A
:100CA600473461346D346534203443346F346D34E5
:0E0CB60070346C346534743465346434003446
:020CC4002834D2
:02400E004A2F37
:00000001FF
